{
  "_format": "hh3-artifact-1",
  "contractName": "RegulatedToken",
  "sourceName": "contracts/RegulatedToken.sol",
  "abi": [
    {
      "inputs": [],
      "stateMutability": "nonpayable",
      "type": "constructor"
    },
    {
      "inputs": [
        {
          "internalType": "address",
          "name": "sender",
          "type": "address"
        },
        {
          "internalType": "uint256",
          "name": "tokenId",
          "type": "uint256"
        },
        {
          "internalType": "address",
          "name": "owner",
          "type": "address"
        }
      ],
      "name": "ERC721IncorrectOwner",
      "type": "error"
    },
    {
      "inputs": [
        {
          "internalType": "address",
          "name": "operator",
          "type": "address"
        },
        {
          "internalType": "uint256",
          "name": "tokenId",
          "type": "uint256"
        }
      ],
      "name": "ERC721InsufficientApproval",
      "type": "error"
    },
    {
      "inputs": [
        {
          "internalType": "address",
          "name": "approver",
          "type": "address"
        }
      ],
      "name": "ERC721InvalidApprover",
      "type": "error"
    },
    {
      "inputs": [
        {
          "internalType": "address",
          "name": "operator",
          "type": "address"
        }
      ],
      "name": "ERC721InvalidOperator",
      "type": "error"
    },
    {
      "inputs": [
        {
          "internalType": "address",
          "name": "owner",
          "type": "address"
        }
      ],
      "name": "ERC721InvalidOwner",
      "type": "error"
    },
    {
      "inputs": [
        {
          "internalType": "address",
          "name": "receiver",
          "type": "address"
        }
      ],
      "name": "ERC721InvalidReceiver",
      "type": "error"
    },
    {
      "inputs": [
        {
          "internalType": "address",
          "name": "sender",
          "type": "address"
        }
      ],
      "name": "ERC721InvalidSender",
      "type": "error"
    },
    {
      "inputs": [
        {
          "internalType": "uint256",
          "name": "tokenId",
          "type": "uint256"
        }
      ],
      "name": "ERC721NonexistentToken",
      "type": "error"
    },
    {
      "inputs": [
        {
          "internalType": "address",
          "name": "owner",
          "type": "address"
        }
      ],
      "name": "OwnableInvalidOwner",
      "type": "error"
    },
    {
      "inputs": [
        {
          "internalType": "address",
          "name": "account",
          "type": "address"
        }
      ],
      "name": "OwnableUnauthorizedAccount",
      "type": "error"
    },
    {
      "inputs": [],
      "name": "ReentrancyGuardReentrantCall",
      "type": "error"
    },
    {
      "anonymous": false,
      "inputs": [
        {
          "indexed": true,
          "internalType": "address",
          "name": "owner",
          "type": "address"
        },
        {
          "indexed": true,
          "internalType": "address",
          "name": "approved",
          "type": "address"
        },
        {
          "indexed": true,
          "internalType": "uint256",
          "name": "tokenId",
          "type": "uint256"
        }
      ],
      "name": "Approval",
      "type": "event"
    },
    {
      "anonymous": false,
      "inputs": [
        {
          "indexed": true,
          "internalType": "address",
          "name": "owner",
          "type": "address"
        },
        {
          "indexed": true,
          "internalType": "address",
          "name": "operator",
          "type": "address"
        },
        {
          "indexed": false,
          "internalType": "bool",
          "name": "approved",
          "type": "bool"
        }
      ],
      "name": "ApprovalForAll",
      "type": "event"
    },
    {
      "anonymous": false,
      "inputs": [
        {
          "indexed": false,
          "internalType": "uint256",
          "name": "_fromTokenId",
          "type": "uint256"
        },
        {
          "indexed": false,
          "internalType": "uint256",
          "name": "_toTokenId",
          "type": "uint256"
        }
      ],
      "name": "BatchMetadataUpdate",
      "type": "event"
    },
    {
      "anonymous": false,
      "inputs": [
        {
          "indexed": true,
          "internalType": "uint256",
          "name": "tokenId",
          "type": "uint256"
        },
        {
          "indexed": true,
          "internalType": "address",
          "name": "seller",
          "type": "address"
        }
      ],
      "name": "ListingCancelled",
      "type": "event"
    },
    {
      "anonymous": false,
      "inputs": [
        {
          "indexed": false,
          "internalType": "uint256",
          "name": "_tokenId",
          "type": "uint256"
        }
      ],
      "name": "MetadataUpdate",
      "type": "event"
    },
    {
      "anonymous": false,
      "inputs": [
        {
          "indexed": true,
          "internalType": "address",
          "name": "previousOwner",
          "type": "address"
        },
        {
          "indexed": true,
          "internalType": "address",
          "name": "newOwner",
          "type": "address"
        }
      ],
      "name": "OwnershipTransferred",
      "type": "event"
    },
    {
      "anonymous": false,
      "inputs": [
        {
          "indexed": true,
          "internalType": "uint256",
          "name": "tokenId",
          "type": "uint256"
        },
        {
          "indexed": true,
          "internalType": "address",
          "name": "seller",
          "type": "address"
        },
        {
          "indexed": false,
          "internalType": "uint256",
          "name": "price",
          "type": "uint256"
        }
      ],
      "name": "TokenListed",
      "type": "event"
    },
    {
      "anonymous": false,
      "inputs": [
        {
          "indexed": true,
          "internalType": "uint256",
          "name": "tokenId",
          "type": "uint256"
        },
        {
          "indexed": true,
          "internalType": "address",
          "name": "creator",
          "type": "address"
        },
        {
          "indexed": false,
          "internalType": "uint256",
          "name": "mintPrice",
          "type": "uint256"
        },
        {
          "indexed": false,
          "internalType": "string",
          "name": "tokenURI",
          "type": "string"
        }
      ],
      "name": "TokenMinted",
      "type": "event"
    },
    {
      "anonymous": false,
      "inputs": [
        {
          "indexed": true,
          "internalType": "uint256",
          "name": "tokenId",
          "type": "uint256"
        },
        {
          "indexed": true,
          "internalType": "address",
          "name": "buyer",
          "type": "address"
        },
        {
          "indexed": true,
          "internalType": "address",
          "name": "seller",
          "type": "address"
        },
        {
          "indexed": false,
          "internalType": "uint256",
          "name": "salePrice",
          "type": "uint256"
        },
        {
          "indexed": false,
          "internalType": "uint256",
          "name": "royaltyPaid",
          "type": "uint256"
        }
      ],
      "name": "TokenSale",
      "type": "event"
    },
    {
      "anonymous": false,
      "inputs": [
        {
          "indexed": true,
          "internalType": "address",
          "name": "from",
          "type": "address"
        },
        {
          "indexed": true,
          "internalType": "address",
          "name": "to",
          "type": "address"
        },
        {
          "indexed": true,
          "internalType": "uint256",
          "name": "tokenId",
          "type": "uint256"
        }
      ],
      "name": "Transfer",
      "type": "event"
    },
    {
      "inputs": [],
      "name": "MAX_RESALE_MARKUP",
      "outputs": [
        {
          "internalType": "uint256",
          "name": "",
          "type": "uint256"
        }
      ],
      "stateMutability": "view",
      "type": "function"
    },
    {
      "inputs": [],
      "name": "ROYALTY_PERCENTAGE",
      "outputs": [
        {
          "internalType": "uint256",
          "name": "",
          "type": "uint256"
        }
      ],
      "stateMutability": "view",
      "type": "function"
    },
    {
      "inputs": [
        {
          "internalType": "address",
          "name": "to",
          "type": "address"
        },
        {
          "internalType": "uint256",
          "name": "tokenId",
          "type": "uint256"
        }
      ],
      "name": "approve",
      "outputs": [],
      "stateMutability": "nonpayable",
      "type": "function"
    },
    {
      "inputs": [
        {
          "internalType": "address",
          "name": "owner",
          "type": "address"
        }
      ],
      "name": "balanceOf",
      "outputs": [
        {
          "internalType": "uint256",
          "name": "",
          "type": "uint256"
        }
      ],
      "stateMutability": "view",
      "type": "function"
    },
    {
      "inputs": [
        {
          "internalType": "uint256",
          "name": "tokenId",
          "type": "uint256"
        }
      ],
      "name": "buyToken",
      "outputs": [],
      "stateMutability": "payable",
      "type": "function"
    },
    {
      "inputs": [
        {
          "internalType": "uint256",
          "name": "tokenId",
          "type": "uint256"
        }
      ],
      "name": "cancelListing",
      "outputs": [],
      "stateMutability": "nonpayable",
      "type": "function"
    },
    {
      "inputs": [
        {
          "internalType": "uint256",
          "name": "",
          "type": "uint256"
        }
      ],
      "name": "creators",
      "outputs": [
        {
          "internalType": "address",
          "name": "",
          "type": "address"
        }
      ],
      "stateMutability": "view",
      "type": "function"
    },
    {
      "inputs": [
        {
          "internalType": "uint256",
          "name": "tokenId",
          "type": "uint256"
        }
      ],
      "name": "getApproved",
      "outputs": [
        {
          "internalType": "address",
          "name": "",
          "type": "address"
        }
      ],
      "stateMutability": "view",
      "type": "function"
    },
    {
      "inputs": [
        {
          "internalType": "address",
          "name": "owner",
          "type": "address"
        },
        {
          "internalType": "address",
          "name": "operator",
          "type": "address"
        }
      ],
      "name": "isApprovedForAll",
      "outputs": [
        {
          "internalType": "bool",
          "name": "",
          "type": "bool"
        }
      ],
      "stateMutability": "view",
      "type": "function"
    },
    {
      "inputs": [
        {
          "internalType": "uint256",
          "name": "tokenId",
          "type": "uint256"
        },
        {
          "internalType": "uint256",
          "name": "price",
          "type": "uint256"
        }
      ],
      "name": "listToken",
      "outputs": [],
      "stateMutability": "nonpayable",
      "type": "function"
    },
    {
      "inputs": [
        {
          "internalType": "uint256",
          "name": "",
          "type": "uint256"
        }
      ],
      "name": "listings",
      "outputs": [
        {
          "internalType": "uint256",
          "name": "price",
          "type": "uint256"
        },
        {
          "internalType": "address",
          "name": "seller",
          "type": "address"
        },
        {
          "internalType": "bool",
          "name": "isListed",
          "type": "bool"
        }
      ],
      "stateMutability": "view",
      "type": "function"
    },
    {
      "inputs": [
        {
          "internalType": "uint256",
          "name": "",
          "type": "uint256"
        }
      ],
      "name": "mintPrices",
      "outputs": [
        {
          "internalType": "uint256",
          "name": "",
          "type": "uint256"
        }
      ],
      "stateMutability": "view",
      "type": "function"
    },
    {
      "inputs": [
        {
          "internalType": "string",
          "name": "tokenURI",
          "type": "string"
        },
        {
          "internalType": "uint256",
          "name": "price",
          "type": "uint256"
        }
      ],
      "name": "mintToken",
      "outputs": [],
      "stateMutability": "payable",
      "type": "function"
    },
    {
      "inputs": [],
      "name": "name",
      "outputs": [
        {
          "internalType": "string",
          "name": "",
          "type": "string"
        }
      ],
      "stateMutability": "view",
      "type": "function"
    },
    {
      "inputs": [],
      "name": "owner",
      "outputs": [
        {
          "internalType": "address",
          "name": "",
          "type": "address"
        }
      ],
      "stateMutability": "view",
      "type": "function"
    },
    {
      "inputs": [
        {
          "internalType": "uint256",
          "name": "tokenId",
          "type": "uint256"
        }
      ],
      "name": "ownerOf",
      "outputs": [
        {
          "internalType": "address",
          "name": "",
          "type": "address"
        }
      ],
      "stateMutability": "view",
      "type": "function"
    },
    {
      "inputs": [],
      "name": "renounceOwnership",
      "outputs": [],
      "stateMutability": "nonpayable",
      "type": "function"
    },
    {
      "inputs": [
        {
          "internalType": "address",
          "name": "from",
          "type": "address"
        },
        {
          "internalType": "address",
          "name": "to",
          "type": "address"
        },
        {
          "internalType": "uint256",
          "name": "tokenId",
          "type": "uint256"
        }
      ],
      "name": "safeTransferFrom",
      "outputs": [],
      "stateMutability": "nonpayable",
      "type": "function"
    },
    {
      "inputs": [
        {
          "internalType": "address",
          "name": "",
          "type": "address"
        },
        {
          "internalType": "address",
          "name": "",
          "type": "address"
        },
        {
          "internalType": "uint256",
          "name": "",
          "type": "uint256"
        },
        {
          "internalType": "bytes",
          "name": "",
          "type": "bytes"
        }
      ],
      "name": "safeTransferFrom",
      "outputs": [],
      "stateMutability": "pure",
      "type": "function"
    },
    {
      "inputs": [
        {
          "internalType": "address",
          "name": "operator",
          "type": "address"
        },
        {
          "internalType": "bool",
          "name": "approved",
          "type": "bool"
        }
      ],
      "name": "setApprovalForAll",
      "outputs": [],
      "stateMutability": "nonpayable",
      "type": "function"
    },
    {
      "inputs": [
        {
          "internalType": "bytes4",
          "name": "interfaceId",
          "type": "bytes4"
        }
      ],
      "name": "supportsInterface",
      "outputs": [
        {
          "internalType": "bool",
          "name": "",
          "type": "bool"
        }
      ],
      "stateMutability": "view",
      "type": "function"
    },
    {
      "inputs": [],
      "name": "symbol",
      "outputs": [
        {
          "internalType": "string",
          "name": "",
          "type": "string"
        }
      ],
      "stateMutability": "view",
      "type": "function"
    },
    {
      "inputs": [
        {
          "internalType": "uint256",
          "name": "tokenId",
          "type": "uint256"
        }
      ],
      "name": "tokenURI",
      "outputs": [
        {
          "internalType": "string",
          "name": "",
          "type": "string"
        }
      ],
      "stateMutability": "view",
      "type": "function"
    },
    {
      "inputs": [
        {
          "internalType": "address",
          "name": "",
          "type": "address"
        },
        {
          "internalType": "address",
          "name": "",
          "type": "address"
        },
        {
          "internalType": "uint256",
          "name": "",
          "type": "uint256"
        }
      ],
      "name": "transferFrom",
      "outputs": [],
      "stateMutability": "pure",
      "type": "function"
    },
    {
      "inputs": [
        {
          "internalType": "address",
          "name": "newOwner",
          "type": "address"
        }
      ],
      "name": "transferOwnership",
      "outputs": [],
      "stateMutability": "nonpayable",
      "type": "function"
    }
  ],
  "bytecode": "0x60806040526001600b55348015610014575f5ffd5b50336040518060400160405280601f81526020017f526567756c61746564204469676974616c2041636365737320546f6b656e7300815250604051806040016040528060048152602001631491105560e21b815250815f908161007791906101d0565b50600161008482826101d0565b5050506001600160a01b0381166100b457604051631e4fbdf760e01b81525f600482015260240160405180910390fd5b6100bd816100e7565b5060017f9b779b17422d0df92223018b32b4d1fa46e071723d6817e2486d003becc55f005561028a565b600780546001600160a01b038381166001600160a01b0319831681179093556040519116919082907f8be0079c531659141344cd1fd0a4f28419497f9722a3daafe3b4186f6b6457e0905f90a35050565b634e487b7160e01b5f52604160045260245ffd5b600181811c9082168061016057607f821691505b60208210810361017e57634e487b7160e01b5f52602260045260245ffd5b50919050565b601f8211156101cb57805f5260205f20601f840160051c810160208510156101a95750805b601f840160051c820191505b818110156101c8575f81556001016101b5565b50505b505050565b81516001600160401b038111156101e9576101e9610138565b6101fd816101f7845461014c565b84610184565b6020601f82116001811461022f575f83156102185750848201515b5f19600385901b1c1916600184901b1784556101c8565b5f84815260208120601f198516915b8281101561025e578785015182556020948501946001909201910161023e565b508482101561027b57868401515f19600387901b60f8161c191681555b50505050600190811b01905550565b611fbf806102975f395ff3fe608060405260043610610161575f3560e01c806370a08231116100cd578063b88d4fde11610087578063cd53d08e11610062578063cd53d08e146103f0578063de74e57b14610424578063e985e9c514610490578063f2fde38b146104af575f5ffd5b8063b88d4fde146103a4578063c046372c146103be578063c87b56dd146103d1575f5ffd5b806370a0823114610302578063715018a61461032157806375c1631d146103355780638da5cb5b1461035457806395d89b4114610371578063a22cb46514610385575f5ffd5b80632d296bf11161011e5780632d296bf114610253578063305a67a81461026657806342842e0e14610285578063463b08db146102a45780636187b33e146102b85780636352211e146102e3575f5ffd5b806301ffc9a71461016557806306fdde0314610199578063081812fc146101ba5780630847112a146101f1578063095ea7b31461021357806323b872dd14610234575b5f5ffd5b348015610170575f5ffd5b5061018461017f366004611a5f565b6104ce565b60405190151581526020015b60405180910390f35b3480156101a4575f5ffd5b506101ad6104f8565b6040516101909190611aa8565b3480156101c5575f5ffd5b506101d96101d4366004611aba565b610587565b6040516001600160a01b039091168152602001610190565b3480156101fc575f5ffd5b50610205606e81565b604051908152602001610190565b34801561021e575f5ffd5b5061023261022d366004611aec565b6105ae565b005b34801561023f575f5ffd5b5061023261024e366004611b14565b6105bd565b610232610261366004611aba565b610619565b348015610271575f5ffd5b50610232610280366004611aba565b610950565b348015610290575f5ffd5b5061023261029f366004611b14565b610a77565b3480156102af575f5ffd5b50610205600a81565b3480156102c3575f5ffd5b506102056102d2366004611aba565b600a6020525f908152604090205481565b3480156102ee575f5ffd5b506101d96102fd366004611aba565b610a96565b34801561030d575f5ffd5b5061020561031c366004611b4e565b610aa0565b34801561032c575f5ffd5b50610232610ae5565b348015610340575f5ffd5b5061023261034f366004611b67565b610af8565b34801561035f575f5ffd5b506007546001600160a01b03166101d9565b34801561037c575f5ffd5b506101ad610caa565b348015610390575f5ffd5b5061023261039f366004611b87565b610cb9565b3480156103af575f5ffd5b5061023261024e366004611c4b565b6102326103cc366004611cc2565b610cc4565b3480156103dc575f5ffd5b506101ad6103eb366004611aba565b610e9b565b3480156103fb575f5ffd5b506101d961040a366004611aba565b60096020525f90815260409020546001600160a01b031681565b34801561042f575f5ffd5b5061046b61043e366004611aba565b60086020525f9081526040902080546001909101546001600160a01b03811690600160a01b900460ff1683565b604080519384526001600160a01b039092166020840152151590820152606001610190565b34801561049b575f5ffd5b506101846104aa366004611d17565b610f1c565b3480156104ba575f5ffd5b506102326104c9366004611b4e565b610f49565b5f6001600160e01b03198216632483248360e11b14806104f257506104f282610f83565b92915050565b60605f805461050690611d48565b80601f016020809104026020016040519081016040528092919081815260200182805461053290611d48565b801561057d5780601f106105545761010080835404028352916020019161057d565b820191905f5260205f20905b81548152906001019060200180831161056057829003601f168201915b5050505050905090565b5f61059182610fd2565b505f828152600460205260409020546001600160a01b03166104f2565b6105b982823361100a565b5050565b60405162461bcd60e51b815260206004820152602660248201527f446972656374207472616e736665722064697361626c65643b207573652062756044820152653caa37b5b2b760d11b60648201526084015b60405180910390fd5b610621611017565b5f818152600860209081526040918290208251606081018452815481526001909101546001600160a01b03811692820192909252600160a01b90910460ff161515918101829052906106a85760405162461bcd60e51b815260206004820152601060248201526f151bdad95b881b9bdd081b1a5cdd195960821b6044820152606401610610565b805134146106f85760405162461bcd60e51b815260206004820152601860248201527f496e636f7272656374207061796d656e7420616d6f756e7400000000000000006044820152606401610610565b5f8281526009602052604081205482516001600160a01b03909116919060649061072490600a90611d94565b61072e9190611dab565b90505f81845f01516107409190611dca565b5f8681526008602090815260408220918255600191820180546001600160a81b0319169055600c805460ff1916909217909155850151909150610784903387611045565b600c805460ff191690556040515f906001600160a01b0385169084908381818185875af1925050503d805f81146107d6576040519150601f19603f3d011682016040523d82523d5f602084013e6107db565b606091505b50509050806108255760405162461bcd60e51b8152602060048201526016602482015275149bde585b1d1e481c185e5b595b9d0819985a5b195960521b6044820152606401610610565b5f85602001516001600160a01b0316836040515f6040518083038185875af1925050503d805f8114610872576040519150601f19603f3d011682016040523d82523d5f602084013e610877565b606091505b50509050806108c05760405162461bcd60e51b815260206004820152601560248201527414d95b1b195c881c185e5b595b9d0819985a5b1959605a1b6044820152606401610610565b85602001516001600160a01b0316336001600160a01b0316887f5c0f2dc01f3c274b7e7fc6f4c682abf69c4032b2a65c04427ecf999455dcbe37895f015188604051610916929190918252602082015260400190565b60405180910390a450505050505061094d60017f9b779b17422d0df92223018b32b4d1fa46e071723d6817e2486d003becc55f0055565b50565b5f818152600860209081526040918290208251606081018452815481526001909101546001600160a01b03811692820192909252600160a01b90910460ff161515918101829052906109d75760405162461bcd60e51b815260206004820152601060248201526f151bdad95b881b9bdd081b1a5cdd195960821b6044820152606401610610565b60208101516001600160a01b03163314610a285760405162461bcd60e51b81526020600482015260126024820152712737ba103634b9ba34b7339039b2b63632b960711b6044820152606401610610565b5f8281526008602052604080822082815560010180546001600160a81b031916905551339184917f8e25282255ab31897df2b0456bb993ac7f84d376861aefd84901d2d63a7428a29190a35050565b610a9183838360405180602001604052805f8152506105bd565b505050565b5f6104f282610fd2565b5f6001600160a01b038216610aca576040516322718ad960e21b81525f6004820152602401610610565b506001600160a01b03165f9081526003602052604090205490565b610aed6110f8565b610af65f611125565b565b33610b0283610a96565b6001600160a01b031614610b4a5760405162461bcd60e51b815260206004820152600f60248201526e2737ba103a37b5b2b71037bbb732b960891b6044820152606401610610565b5f8111610b925760405162461bcd60e51b815260206004820152601660248201527504c697374207072696365206d757374206265203e20360541b6044820152606401610610565b5f828152600a6020526040812054606490610baf90606e90611d94565b610bb99190611dab565b905080821115610c0b5760405162461bcd60e51b815260206004820152601960248201527f45786365656473206d617820726573616c65206d61726b7570000000000000006044820152606401610610565b6040805160608101825283815233602080830182815260018486018181525f8a81526008909452928690209451855590519301805491511515600160a01b026001600160a81b03199092166001600160a01b03949094169390931717909155905184907f7765a1c07bdce3390c521eaeb86030b188b77cbaba2d76bd7c9c32d906bfbcba90610c9d9086815260200190565b60405180910390a3505050565b60606001805461050690611d48565b6105b9338383611176565b5f8111610d0c5760405162461bcd60e51b815260206004820152601660248201527504d696e74207072696365206d757374206265203e20360541b6044820152606401610610565b803414610d545760405162461bcd60e51b8152602060048201526016602482015275125b98dbdc9c9958dd081b5a5b9d081c185e5b595b9d60521b6044820152606401610610565b600b8054906001905f610d678385611ddd565b90915550610d7790503382611235565b610d81818461124e565b5f81815260096020908152604080832080546001600160a01b03191633179055600a9091528120839055610dbd6007546001600160a01b031690565b6001600160a01b0316346040515f6040518083038185875af1925050503d805f8114610e04576040519150601f19603f3d011682016040523d82523d5f602084013e610e09565b606091505b5050905080610e515760405162461bcd60e51b815260206004820152601460248201527313dddb995c881c185e5b595b9d0819985a5b195960621b6044820152606401610610565b336001600160a01b0316827f340475880341ef24ca7397e25f068b6b3bb969443de55b361a0d2a18720e43c88587604051610e8d929190611df0565b60405180910390a350505050565b6060610ea682610fd2565b505f610ebc60408051602081019091525f815290565b90505f610ec88461129d565b905081515f03610ed9579392505050565b805115610f0b578181604051602001610ef3929190611e1f565b60405160208183030381529060405292505050919050565b610f148461133c565b949350505050565b6001600160a01b039182165f90815260056020908152604080832093909416825291909152205460ff1690565b610f516110f8565b6001600160a01b038116610f7a57604051631e4fbdf760e01b81525f6004820152602401610610565b61094d81611125565b5f6001600160e01b031982166380ac58cd60e01b1480610fb357506001600160e01b03198216635b5e139f60e01b145b806104f257506301ffc9a760e01b6001600160e01b03198316146104f2565b5f818152600260205260408120546001600160a01b0316806104f257604051637e27328960e01b815260048101849052602401610610565b610a9183838360016113ad565b61101f6114b1565b60027f9b779b17422d0df92223018b32b4d1fa46e071723d6817e2486d003becc55f0055565b6001600160a01b03821661106e57604051633250574960e11b81525f6004820152602401610610565b5f61107a83835f6114f3565b90506001600160a01b0381166110a657604051637e27328960e01b815260048101839052602401610610565b836001600160a01b0316816001600160a01b0316146110f2576040516364283d7b60e01b81526001600160a01b0380861660048301526024820184905282166044820152606401610610565b50505050565b6007546001600160a01b03163314610af65760405163118cdaa760e01b8152336004820152602401610610565b600780546001600160a01b038381166001600160a01b0319831681179093556040519116919082907f8be0079c531659141344cd1fd0a4f28419497f9722a3daafe3b4186f6b6457e0905f90a35050565b6001600160a01b03831661119f5760405163a9fbf51f60e01b81525f6004820152602401610610565b6001600160a01b0382166111d157604051630b61174360e31b81526001600160a01b0383166004820152602401610610565b6001600160a01b038381165f81815260056020908152604080832094871680845294825291829020805460ff191686151590811790915591519182527f17307eab39ab6107e8899845ad3d59bd9653f200f220920489ca2b5937696c319101610c9d565b6105b9828260405180602001604052805f81525061158c565b5f8281526006602052604090206112658282611e77565b506040518281527ff8e1a15aba9398e019f0b49df1a4fde98ee17ae345cb5f6b5e2c27f5033e8ce79060200160405180910390a15050565b5f8181526006602052604090208054606091906112b990611d48565b80601f01602080910402602001604051908101604052809291908181526020018280546112e590611d48565b80156113305780601f1061130757610100808354040283529160200191611330565b820191905f5260205f20905b81548152906001019060200180831161131357829003601f168201915b50505050509050919050565b606061134782610fd2565b505f61135d60408051602081019091525f815290565b90505f81511161137b5760405180602001604052805f8152506113a6565b80611385846115a3565b604051602001611396929190611e1f565b6040516020818303038152906040525b9392505050565b80806113c157506001600160a01b03821615155b15611482575f6113d084610fd2565b90506001600160a01b038316158015906113fc5750826001600160a01b0316816001600160a01b031614155b801561140f575061140d8184610f1c565b155b156114385760405163a9fbf51f60e01b81526001600160a01b0384166004820152602401610610565b81156114805783856001600160a01b0316826001600160a01b03167f8c5be1e5ebec7d5bd14f71427d1e84f3dd0314c0f7b2291e5b200ac8c7c3b92560405160405180910390a45b505b50505f90815260046020526040902080546001600160a01b0319166001600160a01b0392909216919091179055565b7f9b779b17422d0df92223018b32b4d1fa46e071723d6817e2486d003becc55f0054600203610af657604051633ee5aeb560e01b815260040160405180910390fd5b5f828152600260205260408120546001600160a01b0316801580159061152157506001600160a01b03851615155b1561157857600c5460ff166115785760405162461bcd60e51b815260206004820152601b60248201527f5472616e7366657273206d7573742075736520627579546f6b656e00000000006044820152606401610610565b611583858585611633565b95945050505050565b6115968383611725565b610a91335f858585611786565b60605f6115af836118ae565b60010190505f8167ffffffffffffffff8111156115ce576115ce611bc0565b6040519080825280601f01601f1916602001820160405280156115f8576020820181803683370190505b5090508181016020015b5f19016f181899199a1a9b1b9c1cb0b131b232b360811b600a86061a8153600a850494508461160257509392505050565b5f828152600260205260408120546001600160a01b039081169083161561165f5761165f818486611985565b6001600160a01b038116156116995761167a5f855f5f6113ad565b6001600160a01b0381165f90815260036020526040902080545f190190555b6001600160a01b038516156116c7576001600160a01b0385165f908152600360205260409020805460010190555b5f8481526002602052604080822080546001600160a01b0319166001600160a01b0389811691821790925591518793918516917fddf252ad1be2c89b69c2b068fc378daa952ba7f163c4a11628f55a4df523b3ef91a4949350505050565b6001600160a01b03821661174e57604051633250574960e11b81525f6004820152602401610610565b5f61175a83835f6114f3565b90506001600160a01b03811615610a91576040516339e3563760e11b81525f6004820152602401610610565b6001600160a01b0383163b156118a757604051630a85bd0160e11b81526001600160a01b0384169063150b7a02906117c8908890889087908790600401611f32565b6020604051808303815f875af1925050508015611802575060408051601f3d908101601f191682019092526117ff91810190611f6e565b60015b611869573d80801561182f576040519150601f19603f3d011682016040523d82523d5f602084013e611834565b606091505b5080515f0361186157604051633250574960e11b81526001600160a01b0385166004820152602401610610565b805160208201fd5b6001600160e01b03198116630a85bd0160e11b146118a557604051633250574960e11b81526001600160a01b0385166004820152602401610610565b505b5050505050565b5f8072184f03e93ff9f4daa797ed6e38ed64bf6a1f0160401b83106118ec5772184f03e93ff9f4daa797ed6e38ed64bf6a1f0160401b830492506040015b6d04ee2d6d415b85acef81000000008310611918576d04ee2d6d415b85acef8100000000830492506020015b662386f26fc10000831061193657662386f26fc10000830492506010015b6305f5e100831061194e576305f5e100830492506008015b612710831061196257612710830492506004015b60648310611974576064830492506002015b600a83106104f25760010192915050565b6119908383836119e9565b610a91576001600160a01b0383166119be57604051637e27328960e01b815260048101829052602401610610565b60405163177e802f60e01b81526001600160a01b038316600482015260248101829052604401610610565b5f6001600160a01b03831615801590610f145750826001600160a01b0316846001600160a01b03161480611a225750611a228484610f1c565b80610f145750505f908152600460205260409020546001600160a01b03908116911614919050565b6001600160e01b03198116811461094d575f5ffd5b5f60208284031215611a6f575f5ffd5b81356113a681611a4a565b5f81518084528060208401602086015e5f602082860101526020601f19601f83011685010191505092915050565b602081525f6113a66020830184611a7a565b5f60208284031215611aca575f5ffd5b5035919050565b80356001600160a01b0381168114611ae7575f5ffd5b919050565b5f5f60408385031215611afd575f5ffd5b611b0683611ad1565b946020939093013593505050565b5f5f5f60608486031215611b26575f5ffd5b611b2f84611ad1565b9250611b3d60208501611ad1565b929592945050506040919091013590565b5f60208284031215611b5e575f5ffd5b6113a682611ad1565b5f5f60408385031215611b78575f5ffd5b50508035926020909101359150565b5f5f60408385031215611b98575f5ffd5b611ba183611ad1565b915060208301358015158114611bb5575f5ffd5b809150509250929050565b634e487b7160e01b5f52604160045260245ffd5b5f5f67ffffffffffffffff841115611bee57611bee611bc0565b50604051601f19601f85018116603f0116810181811067ffffffffffffffff82111715611c1d57611c1d611bc0565b604052838152905080828401851015611c34575f5ffd5b838360208301375f60208583010152509392505050565b5f5f5f5f60808587031215611c5e575f5ffd5b611c6785611ad1565b9350611c7560208601611ad1565b925060408501359150606085013567ffffffffffffffff811115611c97575f5ffd5b8501601f81018713611ca7575f5ffd5b611cb687823560208401611bd4565b91505092959194509250565b5f5f60408385031215611cd3575f5ffd5b823567ffffffffffffffff811115611ce9575f5ffd5b8301601f81018513611cf9575f5ffd5b611d0885823560208401611bd4565b95602094909401359450505050565b5f5f60408385031215611d28575f5ffd5b611d3183611ad1565b9150611d3f60208401611ad1565b90509250929050565b600181811c90821680611d5c57607f821691505b602082108103611d7a57634e487b7160e01b5f52602260045260245ffd5b50919050565b634e487b7160e01b5f52601160045260245ffd5b80820281158282048414176104f2576104f2611d80565b5f82611dc557634e487b7160e01b5f52601260045260245ffd5b500490565b818103818111156104f2576104f2611d80565b808201808211156104f2576104f2611d80565b828152604060208201525f610f146040830184611a7a565b5f81518060208401855e5f93019283525090919050565b5f610f14611e2d8386611e08565b84611e08565b601f821115610a9157805f5260205f20601f840160051c81016020851015611e585750805b601f840160051c820191505b818110156118a7575f8155600101611e64565b815167ffffffffffffffff811115611e9157611e91611bc0565b611ea581611e9f8454611d48565b84611e33565b6020601f821160018114611ed7575f8315611ec05750848201515b5f19600385901b1c1916600184901b1784556118a7565b5f84815260208120601f198516915b82811015611f065787850151825560209485019460019092019101611ee6565b5084821015611f2357868401515f19600387901b60f8161c191681555b50505050600190811b01905550565b6001600160a01b03858116825284166020820152604081018390526080606082018190525f90611f6490830184611a7a565b9695505050505050565b5f60208284031215611f7e575f5ffd5b81516113a681611a4a56fea26469706673582212203285c6fdeacf9f8b1d1b54cd17b144f5eb4493528357affbbb512ccd0cd06cd464736f6c634300081c0033",
  "linkReferences": {},
  "deployedLinkReferences": {},
  "immutableReferences": {},
  "inputSourceName": "project/contracts/RegulatedToken.sol",
  "buildInfoId": "solc-0_8_28-2e333f5c4b41a38974fda2726b6ed3095f5b3b84"
}